{
  "contractName": "AutoSales",
  "abi": [
    {
      "anonymous": false,
      "inputs": [
        {
          "indexed": true,
          "internalType": "address",
          "name": "previousOwner",
          "type": "address"
        },
        {
          "indexed": true,
          "internalType": "address",
          "name": "newOwner",
          "type": "address"
        }
      ],
      "name": "OwnershipTransferred",
      "type": "event"
    },
    {
      "anonymous": false,
      "inputs": [
        {
          "indexed": true,
          "internalType": "uint256",
          "name": "carId",
          "type": "uint256"
        },
        {
          "indexed": true,
          "internalType": "address",
          "name": "buyer",
          "type": "address"
        }
      ],
      "name": "TestDriveReservation",
      "type": "event"
    },
    {
      "inputs": [
        {
          "internalType": "uint256",
          "name": "",
          "type": "uint256"
        }
      ],
      "name": "cars",
      "outputs": [
        {
          "internalType": "address",
          "name": "",
          "type": "address"
        }
      ],
      "stateMutability": "view",
      "type": "function",
      "constant": true
    },
    {
      "inputs": [
        {
          "internalType": "uint256",
          "name": "",
          "type": "uint256"
        }
      ],
      "name": "carsMapping",
      "outputs": [
        {
          "internalType": "uint256",
          "name": "carPrice",
          "type": "uint256"
        },
        {
          "internalType": "enum AutoSales.State",
          "name": "situation",
          "type": "uint8"
        },
        {
          "internalType": "string",
          "name": "autoMake",
          "type": "string"
        },
        {
          "internalType": "string",
          "name": "autoModel",
          "type": "string"
        },
        {
          "internalType": "address payable",
          "name": "buyer",
          "type": "address"
        }
      ],
      "stateMutability": "view",
      "type": "function",
      "constant": true
    },
    {
      "inputs": [],
      "name": "owner",
      "outputs": [
        {
          "internalType": "address",
          "name": "",
          "type": "address"
        }
      ],
      "stateMutability": "view",
      "type": "function",
      "constant": true
    },
    {
      "inputs": [],
      "name": "renounceOwnership",
      "outputs": [],
      "stateMutability": "nonpayable",
      "type": "function"
    },
    {
      "inputs": [
        {
          "internalType": "address",
          "name": "newOwner",
          "type": "address"
        }
      ],
      "name": "transferOwnership",
      "outputs": [],
      "stateMutability": "nonpayable",
      "type": "function"
    },
    {
      "inputs": [
        {
          "internalType": "uint256",
          "name": "carId",
          "type": "uint256"
        }
      ],
      "name": "reserve",
      "outputs": [
        {
          "internalType": "uint256",
          "name": "",
          "type": "uint256"
        }
      ],
      "stateMutability": "nonpayable",
      "type": "function"
    },
    {
      "inputs": [],
      "name": "getCars",
      "outputs": [
        {
          "internalType": "address[16]",
          "name": "",
          "type": "address[16]"
        }
      ],
      "stateMutability": "view",
      "type": "function",
      "constant": true
    }
  ],
  "bytecode": "0x608060405234801561001057600080fd5b5061002d61002261003260201b60201c565b61003a60201b60201c565b6100fe565b600033905090565b60008060009054906101000a900473ffffffffffffffffffffffffffffffffffffffff169050816000806101000a81548173ffffffffffffffffffffffffffffffffffffffff021916908373ffffffffffffffffffffffffffffffffffffffff1602179055508173ffffffffffffffffffffffffffffffffffffffff168173ffffffffffffffffffffffffffffffffffffffff167f8be0079c531659141344cd1fd0a4f28419497f9722a3daafe3b4186f6b6457e060405160405180910390a35050565b610c7e8061010d6000396000f3fe608060405234801561001057600080fd5b506004361061007d5760003560e01c8063819b25ba1161005b578063819b25ba146100de5780638da5cb5b1461010e578063f2fde38b1461012c578063f7746e36146101485761007d565b806317c39286146100825780632883babc146100a0578063715018a6146100d4575b600080fd5b61008a610178565b604051610097919061097e565b60405180910390f35b6100ba60048036038101906100b59190610761565b6101f9565b6040516100cb959493929190610a15565b60405180910390f35b6100dc61036c565b005b6100f860048036038101906100f39190610761565b6103f4565b60405161010591906109fa565b60405180910390f35b6101166104c8565b6040516101239190610963565b60405180910390f35b61014660048036038101906101419190610738565b6104f1565b005b610162600480360381019061015d9190610761565b6105e9565b60405161016f9190610963565b60405180910390f35b6101806106eb565b60016010806020026040519081016040528092919082601080156101ef576020028201915b8160009054906101000a900473ffffffffffffffffffffffffffffffffffffffff1673ffffffffffffffffffffffffffffffffffffffff16815260200190600101908083116101a5575b5050505050905090565b60116020528060005260406000206000915090508060000154908060010160009054906101000a900460ff169080600201805461023590610b65565b80601f016020809104026020016040519081016040528092919081815260200182805461026190610b65565b80156102ae5780601f10610283576101008083540402835291602001916102ae565b820191906000526020600020905b81548152906001019060200180831161029157829003601f168201915b5050505050908060030180546102c390610b65565b80601f01602080910402602001604051908101604052809291908181526020018280546102ef90610b65565b801561033c5780601f106103115761010080835404028352916020019161033c565b820191906000526020600020905b81548152906001019060200180831161031f57829003601f168201915b5050505050908060040160009054906101000a900473ffffffffffffffffffffffffffffffffffffffff16905085565b61037461061f565b73ffffffffffffffffffffffffffffffffffffffff166103926104c8565b73ffffffffffffffffffffffffffffffffffffffff16146103e8576040517f08c379a00000000000000000000000000000000000000000000000000000000081526004016103df906109ba565b60405180910390fd5b6103f26000610627565b565b60008082101580156104075750600f8211155b610446576040517f08c379a000000000000000000000000000000000000000000000000000000000815260040161043d906109da565b60405180910390fd5b3360018360108110610481577f4e487b7100000000000000000000000000000000000000000000000000000000600052603260045260246000fd5b0160006101000a81548173ffffffffffffffffffffffffffffffffffffffff021916908373ffffffffffffffffffffffffffffffffffffffff160217905550819050919050565b60008060009054906101000a900473ffffffffffffffffffffffffffffffffffffffff16905090565b6104f961061f565b73ffffffffffffffffffffffffffffffffffffffff166105176104c8565b73ffffffffffffffffffffffffffffffffffffffff161461056d576040517f08c379a0000000000000000000000000000000000000000000000000000000008152600401610564906109ba565b60405180910390fd5b600073ffffffffffffffffffffffffffffffffffffffff168173ffffffffffffffffffffffffffffffffffffffff1614156105dd576040517f08c379a00000000000000000000000000000000000000000000000000000000081526004016105d49061099a565b60405180910390fd5b6105e681610627565b50565b600181601081106105f957600080fd5b016000915054906101000a900473ffffffffffffffffffffffffffffffffffffffff1681565b600033905090565b60008060009054906101000a900473ffffffffffffffffffffffffffffffffffffffff169050816000806101000a81548173ffffffffffffffffffffffffffffffffffffffff021916908373ffffffffffffffffffffffffffffffffffffffff1602179055508173ffffffffffffffffffffffffffffffffffffffff168173ffffffffffffffffffffffffffffffffffffffff167f8be0079c531659141344cd1fd0a4f28419497f9722a3daafe3b4186f6b6457e060405160405180910390a35050565b604051806102000160405280601090602082028036833780820191505090505090565b60008135905061071d81610c1a565b92915050565b60008135905061073281610c31565b92915050565b60006020828403121561074a57600080fd5b60006107588482850161070e565b91505092915050565b60006020828403121561077357600080fd5b600061078184828501610723565b91505092915050565b600061079683836107b1565b60208301905092915050565b6107ab81610ad1565b82525050565b6107ba81610abf565b82525050565b6107c981610abf565b82525050565b6107d881610a80565b6107e28184610aa3565b92506107ed82610a76565b8060005b8381101561081e578151610805878261078a565b965061081083610a96565b9250506001810190506107f1565b505050505050565b61082f81610b20565b82525050565b600061084082610a8b565b61084a8185610aae565b935061085a818560208601610b32565b61086381610bf5565b840191505092915050565b600061087b602683610aae565b91507f4f776e61626c653a206e6577206f776e657220697320746865207a65726f206160008301527f64647265737300000000000000000000000000000000000000000000000000006020830152604082019050919050565b60006108e1602083610aae565b91507f4f776e61626c653a2063616c6c6572206973206e6f7420746865206f776e65726000830152602082019050919050565b6000610921601f83610aae565b91507f4361722049642070726f7669646564206973206f7574206f662072616e6765006000830152602082019050919050565b61095d81610b16565b82525050565b600060208201905061097860008301846107c0565b92915050565b60006102008201905061099460008301846107cf565b92915050565b600060208201905081810360008301526109b38161086e565b9050919050565b600060208201905081810360008301526109d3816108d4565b9050919050565b600060208201905081810360008301526109f381610914565b9050919050565b6000602082019050610a0f6000830184610954565b92915050565b600060a082019050610a2a6000830188610954565b610a376020830187610826565b8181036040830152610a498186610835565b90508181036060830152610a5d8185610835565b9050610a6c60808301846107a2565b9695505050505050565b6000819050919050565b600060109050919050565b600081519050919050565b6000602082019050919050565b600081905092915050565b600082825260208201905092915050565b6000610aca82610af6565b9050919050565b6000610adc82610af6565b9050919050565b6000819050610af182610c06565b919050565b600073ffffffffffffffffffffffffffffffffffffffff82169050919050565b6000819050919050565b6000610b2b82610ae3565b9050919050565b60005b83811015610b50578082015181840152602081019050610b35565b83811115610b5f576000848401525b50505050565b60006002820490506001821680610b7d57607f821691505b60208210811415610b9157610b90610bc6565b5b50919050565b7f4e487b7100000000000000000000000000000000000000000000000000000000600052602160045260246000fd5b7f4e487b7100000000000000000000000000000000000000000000000000000000600052602260045260246000fd5b6000601f19601f8301169050919050565b60038110610c1757610c16610b97565b5b50565b610c2381610abf565b8114610c2e57600080fd5b50565b610c3a81610b16565b8114610c4557600080fd5b5056fea2646970667358221220e877954d7f6629938e20ede7907a392a8a61b9369b8ff49e3cb2ba641c4f23d564736f6c63430008000033",
  "immutableReferences": {},
  "source": "// SPDX-License-Identifier: GPL-3.0\npragma solidity ^0.8.0;\n\nimport \"@openzeppelin/contracts/access/Ownable.sol\";\n\n/// @title Smart Contract for used auto purchasing\n/// @author Jason Cunningham\n/// @notice This smart contract allows someone to reserve a test drive for a used automobile\n/// @dev Smart contract inherits from Ownable library for access control\n\ncontract AutoSales is Ownable {\n    // Variables\n\n    address[16] public cars;\n\n    /// @dev Implement state tracking among buyer ETH addresses\n    // TODO: Incorporate enum State with events and addbuyer() function.\n\n    // Enum\n    enum State {\n        Unowned,\n        Reserved,\n        Sold\n    }\n\n    // Structs\n    struct Car {\n        uint256 carPrice;\n        State situation;\n        string autoMake;\n        string autoModel;\n        address payable buyer;\n    }\n\n    // mappings\n    mapping(uint256 => Car) public carsMapping;\n\n    //Events\n\n    /// @notice Event emitted when a buyer reserves a test drive.\n    /// @param carId  Car ETH Identification Number\n    /// @param buyer buyer address\n    event TestDriveReservation(uint256 indexed carId, address indexed buyer);\n\n    //modifiers\n\n    // Reserving a car\n    function reserve(uint256 carId) public returns (uint256) {\n        require(carId >= 0 && carId <= 15, \"Car Id provided is out of range\");\n\n        cars[carId] = msg.sender;\n        return carId;\n    }\n\n    // Retrieving the cars array\n    function getCars() public view returns (address[16] memory) {\n        return cars;\n    }\n\n    /// @notice add buyer manually\n    /// @dev Contract owner should only be allowed to call this function\n    function addBuyer() private onlyOwner {\n        // TODO: add buyer to array of authorized ETH addresses\n        // TODO: Implement event TestDriveReservation\n    }\n}\n",
  "sourcePath": "/Users/jayc/Desktop/Autosales/contracts/AutoSales.sol",
  "compiler": {
    "name": "solc",
    "version": "0.8.0+commit.c7dfd78e.Emscripten.clang"
  },
  "schemaVersion": "3.4.3",
  "updatedAt": "2021-11-30T06:59:14.485Z",
  "networkType": "ethereum",
  "devdoc": {
    "author": "Jason Cunningham",
    "details": "Smart contract inherits from Ownable library for access control",
    "events": {
      "TestDriveReservation(uint256,address)": {
        "params": {
          "buyer": "buyer address",
          "carId": "Car ETH Identification Number"
        }
      }
    },
    "kind": "dev",
    "methods": {
      "owner()": {
        "details": "Returns the address of the current owner."
      },
      "renounceOwnership()": {
        "details": "Leaves the contract without owner. It will not be possible to call `onlyOwner` functions anymore. Can only be called by the current owner. NOTE: Renouncing ownership will leave the contract without an owner, thereby removing any functionality that is only available to the owner."
      },
      "transferOwnership(address)": {
        "details": "Transfers ownership of the contract to a new account (`newOwner`). Can only be called by the current owner."
      }
    },
    "title": "Smart Contract for used auto purchasing",
    "version": 1
  },
  "userdoc": {
    "events": {
      "TestDriveReservation(uint256,address)": {
        "notice": "Event emitted when a buyer reserves a test drive."
      }
    },
    "kind": "user",
    "methods": {},
    "notice": "This smart contract allows someone to reserve a test drive for a used automobile",
    "version": 1
  }
}